{
    "_format": "hh-sol-artifact-1",
    "contractName": "FruitMarketplace",
    "sourceName": "contracts/FruitMarketplace.sol",
    "abi": [
        {
            "anonymous": false,
            "inputs": [
                {
                    "indexed": false,
                    "internalType": "uint256",
                    "name": "id",
                    "type": "uint256"
                },
                {
                    "indexed": false,
                    "internalType": "string",
                    "name": "name",
                    "type": "string"
                },
                {
                    "indexed": false,
                    "internalType": "uint256",
                    "name": "price",
                    "type": "uint256"
                }
            ],
            "name": "FruitListed",
            "type": "event"
        },
        {
            "anonymous": false,
            "inputs": [
                {
                    "indexed": false,
                    "internalType": "uint256",
                    "name": "id",
                    "type": "uint256"
                },
                {
                    "indexed": false,
                    "internalType": "address",
                    "name": "buyer",
                    "type": "address"
                }
            ],
            "name": "FruitPurchased",
            "type": "event"
        },
        {
            "anonymous": false,
            "inputs": [
                {
                    "indexed": false,
                    "internalType": "uint256",
                    "name": "id",
                    "type": "uint256"
                },
                {
                    "indexed": false,
                    "internalType": "uint256",
                    "name": "newPrice",
                    "type": "uint256"
                }
            ],
            "name": "FruitUpdated",
            "type": "event"
        },
        {
            "anonymous": false,
            "inputs": [
                {
                    "indexed": false,
                    "internalType": "address",
                    "name": "seller",
                    "type": "address"
                },
                {
                    "indexed": false,
                    "internalType": "uint256",
                    "name": "rating",
                    "type": "uint256"
                }
            ],
            "name": "SellerRated",
            "type": "event"
        },
        {
            "inputs": [
                {
                    "internalType": "uint256",
                    "name": "",
                    "type": "uint256"
                },
                {
                    "internalType": "address",
                    "name": "",
                    "type": "address"
                }
            ],
            "name": "fruitBuyers",
            "outputs": [
                {
                    "internalType": "bool",
                    "name": "",
                    "type": "bool"
                }
            ],
            "stateMutability": "view",
            "type": "function"
        },
        {
            "inputs": [
                {
                    "internalType": "uint256",
                    "name": "",
                    "type": "uint256"
                }
            ],
            "name": "fruits",
            "outputs": [
                {
                    "internalType": "uint256",
                    "name": "id",
                    "type": "uint256"
                },
                {
                    "internalType": "string",
                    "name": "name",
                    "type": "string"
                },
                {
                    "internalType": "uint256",
                    "name": "price",
                    "type": "uint256"
                },
                {
                    "internalType": "address",
                    "name": "seller",
                    "type": "address"
                },
                {
                    "internalType": "bool",
                    "name": "isAvailable",
                    "type": "bool"
                }
            ],
            "stateMutability": "view",
            "type": "function"
        },
        {
            "inputs": [
                {
                    "internalType": "uint256",
                    "name": "_fruitId",
                    "type": "uint256"
                }
            ],
            "name": "getFruit",
            "outputs": [
                {
                    "internalType": "uint256",
                    "name": "id",
                    "type": "uint256"
                },
                {
                    "internalType": "string",
                    "name": "name",
                    "type": "string"
                },
                {
                    "internalType": "uint256",
                    "name": "price",
                    "type": "uint256"
                },
                {
                    "internalType": "address",
                    "name": "seller",
                    "type": "address"
                },
                {
                    "internalType": "bool",
                    "name": "isAvailable",
                    "type": "bool"
                }
            ],
            "stateMutability": "view",
            "type": "function"
        },
        {
            "inputs": [],
            "name": "getFruitCount",
            "outputs": [
                {
                    "internalType": "uint256",
                    "name": "",
                    "type": "uint256"
                }
            ],
            "stateMutability": "view",
            "type": "function"
        },
        {
            "inputs": [
                {
                    "internalType": "address",
                    "name": "_seller",
                    "type": "address"
                }
            ],
            "name": "getSellerAverageRating",
            "outputs": [
                {
                    "internalType": "uint256",
                    "name": "",
                    "type": "uint256"
                }
            ],
            "stateMutability": "view",
            "type": "function"
        },
        {
            "inputs": [
                {
                    "internalType": "string",
                    "name": "_name",
                    "type": "string"
                },
                {
                    "internalType": "uint256",
                    "name": "_price",
                    "type": "uint256"
                }
            ],
            "name": "listFruit",
            "outputs": [
                {
                    "internalType": "uint256",
                    "name": "",
                    "type": "uint256"
                }
            ],
            "stateMutability": "nonpayable",
            "type": "function"
        },
        {
            "inputs": [
                {
                    "internalType": "uint256",
                    "name": "_fruitId",
                    "type": "uint256"
                }
            ],
            "name": "purchaseFruit",
            "outputs": [],
            "stateMutability": "payable",
            "type": "function"
        },
        {
            "inputs": [
                {
                    "internalType": "address",
                    "name": "_seller",
                    "type": "address"
                },
                {
                    "internalType": "uint256",
                    "name": "_rating",
                    "type": "uint256"
                }
            ],
            "name": "rateSeller",
            "outputs": [],
            "stateMutability": "nonpayable",
            "type": "function"
        },
        {
            "inputs": [
                {
                    "internalType": "address",
                    "name": "",
                    "type": "address"
                }
            ],
            "name": "sellerRatings",
            "outputs": [
                {
                    "internalType": "uint256",
                    "name": "totalRating",
                    "type": "uint256"
                },
                {
                    "internalType": "uint256",
                    "name": "ratingCount",
                    "type": "uint256"
                }
            ],
            "stateMutability": "view",
            "type": "function"
        },
        {
            "inputs": [
                {
                    "internalType": "uint256",
                    "name": "_fruitId",
                    "type": "uint256"
                },
                {
                    "internalType": "uint256",
                    "name": "_newPrice",
                    "type": "uint256"
                }
            ],
            "name": "updateFruitPrice",
            "outputs": [],
            "stateMutability": "nonpayable",
            "type": "function"
        }
    ],
    "bytecode": "0x608060405260008055348015601357600080fd5b50611bdf806100236000396000f3fe6080604052600436106100915760003560e01c8063b543e76411610059578063b543e764146101a4578063b7835b1c146101c0578063ba476b6b146101fd578063be932ebd14610228578063c41721621461026557610091565b806319617b6a14610096578063200d4515146100d45780636f7ec59114610111578063742ab0d31461013a57806376ce7fe914610163575b600080fd5b3480156100a257600080fd5b506100bd60048036038101906100b89190610dfd565b6102a6565b6040516100cb929190610e43565b60405180910390f35b3480156100e057600080fd5b506100fb60048036038101906100f69190610e98565b6102ca565b6040516101089190610ef3565b60405180910390f35b34801561011d57600080fd5b5061013860048036038101906101339190610f0e565b6102f9565b005b34801561014657600080fd5b50610161600480360381019061015c9190610f4e565b61047d565b005b34801561016f57600080fd5b5061018a60048036038101906101859190610f8e565b6106ba565b60405161019b95949392919061105a565b60405180910390f35b6101be60048036038101906101b99190610f8e565b6107be565b005b3480156101cc57600080fd5b506101e760048036038101906101e291906111e9565b610a93565b6040516101f49190611245565b60405180910390f35b34801561020957600080fd5b50610212610c20565b60405161021f9190611245565b60405180910390f35b34801561023457600080fd5b5061024f600480360381019061024a9190610dfd565b610c29565b60405161025c9190611245565b60405180910390f35b34801561027157600080fd5b5061028c60048036038101906102879190610f8e565b610ca0565b60405161029d95949392919061105a565b60405180910390f35b60026020528060005260406000206000915090508060000154908060010154905082565b60036020528160005260406000206020528060005260406000206000915091509054906101000a900460ff1681565b60006001600084815260200190815260200160002090503373ffffffffffffffffffffffffffffffffffffffff168160030160009054906101000a900473ffffffffffffffffffffffffffffffffffffffff1673ffffffffffffffffffffffffffffffffffffffff16146103a2576040517f08c379a0000000000000000000000000000000000000000000000000000000008152600401610399906112d2565b60405180910390fd5b8060030160149054906101000a900460ff166103f3576040517f08c379a00000000000000000000000000000000000000000000000000000000081526004016103ea90611364565b60405180910390fd5b60008211610436576040517f08c379a000000000000000000000000000000000000000000000000000000000815260040161042d906113d0565b60405180910390fd5b8181600201819055507fcc87c81c8ac5c73af09d4fa8d8b9521bf5efd5bd1145b154860a380a3e00dedf8383604051610470929190610e43565b60405180910390a1505050565b6001811015801561048f575060058111155b6104ce576040517f08c379a00000000000000000000000000000000000000000000000000000000081526004016104c59061143c565b60405180910390fd5b6000805b6000548110156105c2578373ffffffffffffffffffffffffffffffffffffffff166001600083815260200190815260200160002060030160009054906101000a900473ffffffffffffffffffffffffffffffffffffffff1673ffffffffffffffffffffffffffffffffffffffff161480156105a757506003600082815260200190815260200160002060003373ffffffffffffffffffffffffffffffffffffffff1673ffffffffffffffffffffffffffffffffffffffff16815260200190815260200160002060009054906101000a900460ff165b156105b557600191506105c2565b80806001019150506104d2565b5080610603576040517f08c379a00000000000000000000000000000000000000000000000000000000081526004016105fa906114ce565b60405180910390fd5b6000600260008573ffffffffffffffffffffffffffffffffffffffff1673ffffffffffffffffffffffffffffffffffffffff16815260200190815260200160002090508281600001600082825461065a919061151d565b9250508190555080600101600081548092919061067690611551565b91905055507f0d2a39a6fc73e40b10a3ce1af8481f31b1454fc9a86710f826bef0dc3f812d6c84846040516106ac929190611599565b60405180910390a150505050565b6000606060008060008060016000888152602001908152602001600020905080600001548160010182600201548360030160009054906101000a900473ffffffffffffffffffffffffffffffffffffffff168460030160149054906101000a900460ff1683805461072a906115f1565b80601f0160208091040260200160405190810160405280929190818152602001828054610756906115f1565b80156107a35780601f10610778576101008083540402835291602001916107a3565b820191906000526020600020905b81548152906001019060200180831161078657829003601f168201915b50505050509350955095509550955095505091939590929450565b60006001600083815260200190815260200160002090508060030160149054906101000a900460ff16610826576040517f08c379a000000000000000000000000000000000000000000000000000000000815260040161081d90611694565b60405180910390fd5b806002015434101561086d576040517f08c379a000000000000000000000000000000000000000000000000000000000815260040161086490611700565b60405180910390fd5b3373ffffffffffffffffffffffffffffffffffffffff168160030160009054906101000a900473ffffffffffffffffffffffffffffffffffffffff1673ffffffffffffffffffffffffffffffffffffffff16036108ff576040517f08c379a00000000000000000000000000000000000000000000000000000000081526004016108f690611792565b60405180910390fd5b60008160030160146101000a81548160ff02191690831515021790555060016003600084815260200190815260200160002060003373ffffffffffffffffffffffffffffffffffffffff1673ffffffffffffffffffffffffffffffffffffffff16815260200190815260200160002060006101000a81548160ff02191690831515021790555060008160030160009054906101000a900473ffffffffffffffffffffffffffffffffffffffff1673ffffffffffffffffffffffffffffffffffffffff16346040516109cf906117e3565b60006040518083038185875af1925050503d8060008114610a0c576040519150601f19603f3d011682016040523d82523d6000602084013e610a11565b606091505b5050905080610a55576040517f08c379a0000000000000000000000000000000000000000000000000000000008152600401610a4c90611844565b60405180910390fd5b7ff06f9f590d60f59ef1f674a4c8f0951b200306b77b5fcc066c7b58a7365e55708333604051610a86929190611864565b60405180910390a1505050565b6000808211610ad7576040517f08c379a0000000000000000000000000000000000000000000000000000000008152600401610ace906113d0565b60405180910390fd5b6000805490506040518060a001604052808281526020018581526020018481526020013373ffffffffffffffffffffffffffffffffffffffff1681526020016001151581525060016000838152602001908152602001600020600082015181600001556020820151816001019081610b4f9190611a39565b506040820151816002015560608201518160030160006101000a81548173ffffffffffffffffffffffffffffffffffffffff021916908373ffffffffffffffffffffffffffffffffffffffff16021790555060808201518160030160146101000a81548160ff021916908315150217905550905050600080815480929190610bd690611551565b91905055507f289429afa14e6e6d5104ca0c8844ff5d52363bbcaac4ca5c10a1b585daab1a20818585604051610c0e93929190611b0b565b60405180910390a18091505092915050565b60008054905090565b600080600260008473ffffffffffffffffffffffffffffffffffffffff1673ffffffffffffffffffffffffffffffffffffffff16815260200190815260200160002090506000816001015403610c83576000915050610c9b565b80600101548160000154610c979190611b78565b9150505b919050565b6001602052806000526040600020600091509050806000015490806001018054610cc9906115f1565b80601f0160208091040260200160405190810160405280929190818152602001828054610cf5906115f1565b8015610d425780601f10610d1757610100808354040283529160200191610d42565b820191906000526020600020905b815481529060010190602001808311610d2557829003601f168201915b5050505050908060020154908060030160009054906101000a900473ffffffffffffffffffffffffffffffffffffffff16908060030160149054906101000a900460ff16905085565b6000604051905090565b600080fd5b600080fd5b600073ffffffffffffffffffffffffffffffffffffffff82169050919050565b6000610dca82610d9f565b9050919050565b610dda81610dbf565b8114610de557600080fd5b50565b600081359050610df781610dd1565b92915050565b600060208284031215610e1357610e12610d95565b5b6000610e2184828501610de8565b91505092915050565b6000819050919050565b610e3d81610e2a565b82525050565b6000604082019050610e586000830185610e34565b610e656020830184610e34565b9392505050565b610e7581610e2a565b8114610e8057600080fd5b50565b600081359050610e9281610e6c565b92915050565b60008060408385031215610eaf57610eae610d95565b5b6000610ebd85828601610e83565b9250506020610ece85828601610de8565b9150509250929050565b60008115159050919050565b610eed81610ed8565b82525050565b6000602082019050610f086000830184610ee4565b92915050565b60008060408385031215610f2557610f24610d95565b5b6000610f3385828601610e83565b9250506020610f4485828601610e83565b9150509250929050565b60008060408385031215610f6557610f64610d95565b5b6000610f7385828601610de8565b9250506020610f8485828601610e83565b9150509250929050565b600060208284031215610fa457610fa3610d95565b5b6000610fb284828501610e83565b91505092915050565b600081519050919050565b600082825260208201905092915050565b60005b83811015610ff5578082015181840152602081019050610fda565b60008484015250505050565b6000601f19601f8301169050919050565b600061101d82610fbb565b6110278185610fc6565b9350611037818560208601610fd7565b61104081611001565b840191505092915050565b61105481610dbf565b82525050565b600060a08201905061106f6000830188610e34565b81810360208301526110818187611012565b90506110906040830186610e34565b61109d606083018561104b565b6110aa6080830184610ee4565b9695505050505050565b600080fd5b600080fd5b7f4e487b7100000000000000000000000000000000000000000000000000000000600052604160045260246000fd5b6110f682611001565b810181811067ffffffffffffffff82111715611115576111146110be565b5b80604052505050565b6000611128610d8b565b905061113482826110ed565b919050565b600067ffffffffffffffff821115611154576111536110be565b5b61115d82611001565b9050602081019050919050565b82818337600083830152505050565b600061118c61118784611139565b61111e565b9050828152602081018484840111156111a8576111a76110b9565b5b6111b384828561116a565b509392505050565b600082601f8301126111d0576111cf6110b4565b5b81356111e0848260208601611179565b91505092915050565b60008060408385031215611200576111ff610d95565b5b600083013567ffffffffffffffff81111561121e5761121d610d9a565b5b61122a858286016111bb565b925050602061123b85828601610e83565b9150509250929050565b600060208201905061125a6000830184610e34565b92915050565b7f4f6e6c79207468652073656c6c65722063616e2075706461746520746865206660008201527f7275697400000000000000000000000000000000000000000000000000000000602082015250565b60006112bc602483610fc6565b91506112c782611260565b604082019050919050565b600060208201905081810360008301526112eb816112af565b9050919050565b7f4672756974206973206e6f7420617661696c61626c6520666f7220757064617460008201527f6500000000000000000000000000000000000000000000000000000000000000602082015250565b600061134e602183610fc6565b9150611359826112f2565b604082019050919050565b6000602082019050818103600083015261137d81611341565b9050919050565b7f5072696365206d7573742062652067726561746572207468616e203000000000600082015250565b60006113ba601c83610fc6565b91506113c582611384565b602082019050919050565b600060208201905081810360008301526113e9816113ad565b9050919050565b7f526174696e67206d757374206265206265747765656e203120616e6420350000600082015250565b6000611426601e83610fc6565b9150611431826113f0565b602082019050919050565b6000602082019050818103600083015261145581611419565b9050919050565b7f596f752063616e206f6e6c7920726174652073656c6c6572732066726f6d207760008201527f686f6d20796f7527766520707572636861736564000000000000000000000000602082015250565b60006114b8603483610fc6565b91506114c38261145c565b604082019050919050565b600060208201905081810360008301526114e7816114ab565b9050919050565b7f4e487b7100000000000000000000000000000000000000000000000000000000600052601160045260246000fd5b600061152882610e2a565b915061153383610e2a565b925082820190508082111561154b5761154a6114ee565b5b92915050565b600061155c82610e2a565b91507fffffffffffffffffffffffffffffffffffffffffffffffffffffffffffffffff820361158e5761158d6114ee565b5b600182019050919050565b60006040820190506115ae600083018561104b565b6115bb6020830184610e34565b9392505050565b7f4e487b7100000000000000000000000000000000000000000000000000000000600052602260045260246000fd5b6000600282049050600182168061160957607f821691505b60208210810361161c5761161b6115c2565b5b50919050565b7f4672756974206973206e6f7420617661696c61626c6520666f7220707572636860008201527f6173650000000000000000000000000000000000000000000000000000000000602082015250565b600061167e602383610fc6565b915061168982611622565b604082019050919050565b600060208201905081810360008301526116ad81611671565b9050919050565b7f496e73756666696369656e742066756e64732073656e74000000000000000000600082015250565b60006116ea601783610fc6565b91506116f5826116b4565b602082019050919050565b60006020820190508181036000830152611719816116dd565b9050919050565b7f53656c6c65722063616e6e6f7420627579207468656972206f776e206672756960008201527f7400000000000000000000000000000000000000000000000000000000000000602082015250565b600061177c602183610fc6565b915061178782611720565b604082019050919050565b600060208201905081810360008301526117ab8161176f565b9050919050565b600081905092915050565b50565b60006117cd6000836117b2565b91506117d8826117bd565b600082019050919050565b60006117ee826117c0565b9150819050919050565b7f4661696c656420746f2073656e64207061796d656e7420746f2073656c6c6572600082015250565b600061182e602083610fc6565b9150611839826117f8565b602082019050919050565b6000602082019050818103600083015261185d81611821565b9050919050565b60006040820190506118796000830185610e34565b611886602083018461104b565b9392505050565b60008190508160005260206000209050919050565b60006020601f8301049050919050565b600082821b905092915050565b6000600883026118ef7fffffffffffffffffffffffffffffffffffffffffffffffffffffffffffffffff826118b2565b6118f986836118b2565b95508019841693508086168417925050509392505050565b6000819050919050565b600061193661193161192c84610e2a565b611911565b610e2a565b9050919050565b6000819050919050565b6119508361191b565b61196461195c8261193d565b8484546118bf565b825550505050565b600090565b61197961196c565b611984818484611947565b505050565b5b818110156119a85761199d600082611971565b60018101905061198a565b5050565b601f8211156119ed576119be8161188d565b6119c7846118a2565b810160208510156119d6578190505b6119ea6119e2856118a2565b830182611989565b50505b505050565b600082821c905092915050565b6000611a10600019846008026119f2565b1980831691505092915050565b6000611a2983836119ff565b9150826002028217905092915050565b611a4282610fbb565b67ffffffffffffffff811115611a5b57611a5a6110be565b5b611a6582546115f1565b611a708282856119ac565b600060209050601f831160018114611aa35760008415611a91578287015190505b611a9b8582611a1d565b865550611b03565b601f198416611ab18661188d565b60005b82811015611ad957848901518255600182019150602085019450602081019050611ab4565b86831015611af65784890151611af2601f8916826119ff565b8355505b6001600288020188555050505b505050505050565b6000606082019050611b206000830186610e34565b8181036020830152611b328185611012565b9050611b416040830184610e34565b949350505050565b7f4e487b7100000000000000000000000000000000000000000000000000000000600052601260045260246000fd5b6000611b8382610e2a565b9150611b8e83610e2a565b925082611b9e57611b9d611b49565b5b82820490509291505056fea26469706673582212204877fe695f2d360c52ae5e505a9305f3e226388d94932b0445c962eb30217fca64736f6c634300081c0033",
    "linkReferences": {},
    "deployedLinkReferences": {}
}