{
  "_format": "hh-sol-artifact-1",
  "contractName": "FruitMarketplace",
  "sourceName": "contracts/FruitMarketplace.sol",
  "abi": [
    {
      "inputs": [],
      "stateMutability": "nonpayable",
      "type": "constructor"
    },
    {
      "anonymous": false,
      "inputs": [
        {
          "indexed": true,
          "internalType": "uint256",
          "name": "id",
          "type": "uint256"
        },
        {
          "indexed": false,
          "internalType": "string",
          "name": "name",
          "type": "string"
        },
        {
          "indexed": false,
          "internalType": "uint256",
          "name": "price",
          "type": "uint256"
        },
        {
          "indexed": true,
          "internalType": "address",
          "name": "seller",
          "type": "address"
        }
      ],
      "name": "FruitListed",
      "type": "event"
    },
    {
      "anonymous": false,
      "inputs": [
        {
          "indexed": true,
          "internalType": "uint256",
          "name": "id",
          "type": "uint256"
        },
        {
          "indexed": true,
          "internalType": "address",
          "name": "buyer",
          "type": "address"
        },
        {
          "indexed": false,
          "internalType": "uint256",
          "name": "price",
          "type": "uint256"
        }
      ],
      "name": "FruitPurchased",
      "type": "event"
    },
    {
      "anonymous": false,
      "inputs": [
        {
          "indexed": true,
          "internalType": "uint256",
          "name": "id",
          "type": "uint256"
        },
        {
          "indexed": false,
          "internalType": "uint256",
          "name": "newPrice",
          "type": "uint256"
        },
        {
          "indexed": true,
          "internalType": "address",
          "name": "seller",
          "type": "address"
        }
      ],
      "name": "FruitUpdated",
      "type": "event"
    },
    {
      "anonymous": false,
      "inputs": [
        {
          "indexed": true,
          "internalType": "address",
          "name": "buyer",
          "type": "address"
        },
        {
          "indexed": false,
          "internalType": "uint256",
          "name": "amount",
          "type": "uint256"
        }
      ],
      "name": "RefundSent",
      "type": "event"
    },
    {
      "anonymous": false,
      "inputs": [
        {
          "indexed": true,
          "internalType": "address",
          "name": "seller",
          "type": "address"
        },
        {
          "indexed": false,
          "internalType": "uint256",
          "name": "rating",
          "type": "uint256"
        },
        {
          "indexed": true,
          "internalType": "address",
          "name": "rater",
          "type": "address"
        }
      ],
      "name": "SellerRated",
      "type": "event"
    },
    {
      "inputs": [
        {
          "internalType": "uint256",
          "name": "",
          "type": "uint256"
        },
        {
          "internalType": "address",
          "name": "",
          "type": "address"
        }
      ],
      "name": "fruitBuyers",
      "outputs": [
        {
          "internalType": "bool",
          "name": "",
          "type": "bool"
        }
      ],
      "stateMutability": "view",
      "type": "function"
    },
    {
      "inputs": [
        {
          "internalType": "uint256",
          "name": "",
          "type": "uint256"
        }
      ],
      "name": "fruits",
      "outputs": [
        {
          "internalType": "uint256",
          "name": "id",
          "type": "uint256"
        },
        {
          "internalType": "string",
          "name": "name",
          "type": "string"
        },
        {
          "internalType": "uint256",
          "name": "price",
          "type": "uint256"
        },
        {
          "internalType": "address",
          "name": "seller",
          "type": "address"
        },
        {
          "internalType": "bool",
          "name": "isAvailable",
          "type": "bool"
        }
      ],
      "stateMutability": "view",
      "type": "function"
    },
    {
      "inputs": [
        {
          "internalType": "uint256",
          "name": "_fruitId",
          "type": "uint256"
        }
      ],
      "name": "getFruit",
      "outputs": [
        {
          "internalType": "uint256",
          "name": "id",
          "type": "uint256"
        },
        {
          "internalType": "string",
          "name": "name",
          "type": "string"
        },
        {
          "internalType": "uint256",
          "name": "price",
          "type": "uint256"
        },
        {
          "internalType": "address",
          "name": "seller",
          "type": "address"
        },
        {
          "internalType": "bool",
          "name": "isAvailable",
          "type": "bool"
        }
      ],
      "stateMutability": "view",
      "type": "function"
    },
    {
      "inputs": [],
      "name": "getFruitCount",
      "outputs": [
        {
          "internalType": "uint256",
          "name": "",
          "type": "uint256"
        }
      ],
      "stateMutability": "view",
      "type": "function"
    },
    {
      "inputs": [
        {
          "internalType": "address",
          "name": "_seller",
          "type": "address"
        }
      ],
      "name": "getSellerAverageRating",
      "outputs": [
        {
          "internalType": "uint256",
          "name": "",
          "type": "uint256"
        }
      ],
      "stateMutability": "view",
      "type": "function"
    },
    {
      "inputs": [
        {
          "internalType": "string",
          "name": "_name",
          "type": "string"
        },
        {
          "internalType": "uint256",
          "name": "_price",
          "type": "uint256"
        }
      ],
      "name": "listFruit",
      "outputs": [
        {
          "internalType": "uint256",
          "name": "",
          "type": "uint256"
        }
      ],
      "stateMutability": "nonpayable",
      "type": "function"
    },
    {
      "inputs": [
        {
          "internalType": "uint256",
          "name": "_fruitId",
          "type": "uint256"
        }
      ],
      "name": "purchaseFruit",
      "outputs": [],
      "stateMutability": "payable",
      "type": "function"
    },
    {
      "inputs": [
        {
          "internalType": "address",
          "name": "_seller",
          "type": "address"
        },
        {
          "internalType": "uint256",
          "name": "_rating",
          "type": "uint256"
        }
      ],
      "name": "rateSeller",
      "outputs": [],
      "stateMutability": "nonpayable",
      "type": "function"
    },
    {
      "inputs": [
        {
          "internalType": "address",
          "name": "",
          "type": "address"
        }
      ],
      "name": "sellerRatings",
      "outputs": [
        {
          "internalType": "uint256",
          "name": "totalRating",
          "type": "uint256"
        },
        {
          "internalType": "uint256",
          "name": "ratingCount",
          "type": "uint256"
        }
      ],
      "stateMutability": "view",
      "type": "function"
    },
    {
      "inputs": [
        {
          "internalType": "uint256",
          "name": "_fruitId",
          "type": "uint256"
        },
        {
          "internalType": "uint256",
          "name": "_newPrice",
          "type": "uint256"
        }
      ],
      "name": "updateFruitPrice",
      "outputs": [],
      "stateMutability": "nonpayable",
      "type": "function"
    }
  ],
  "bytecode": "0x608060405260008055348015601357600080fd5b506000600460006101000a81548160ff0219169083151502179055506126928061003e6000396000f3fe6080604052600436106100915760003560e01c8063b543e76411610059578063b543e764146101a4578063b7835b1c146101c0578063ba476b6b146101fd578063be932ebd14610228578063c41721621461026557610091565b806319617b6a14610096578063200d4515146100d45780636f7ec59114610111578063742ab0d31461013a57806376ce7fe914610163575b600080fd5b3480156100a257600080fd5b506100bd60048036038101906100b891906113f0565b6102a6565b6040516100cb929190611436565b60405180910390f35b3480156100e057600080fd5b506100fb60048036038101906100f6919061148b565b6102ca565b60405161010891906114e6565b60405180910390f35b34801561011d57600080fd5b5061013860048036038101906101339190611501565b6102f9565b005b34801561014657600080fd5b50610161600480360381019061015c9190611541565b610572565b005b34801561016f57600080fd5b5061018a60048036038101906101859190611581565b61098f565b60405161019b95949392919061164d565b60405180910390f35b6101be60048036038101906101b99190611581565b610ada565b005b3480156101cc57600080fd5b506101e760048036038101906101e291906117dc565b610f7e565b6040516101f49190611838565b60405180910390f35b34801561020957600080fd5b506102126111a4565b60405161021f9190611838565b60405180910390f35b34801561023457600080fd5b5061024f600480360381019061024a91906113f0565b6111ad565b60405161025c9190611838565b60405180910390f35b34801561027157600080fd5b5061028c60048036038101906102879190611581565b611293565b60405161029d95949392919061164d565b60405180910390f35b60026020528060005260406000206000915090508060000154908060010154905082565b60036020528160005260406000206020528060005260406000206000915091509054906101000a900460ff1681565b81600054811061033e576040517f08c379a00000000000000000000000000000000000000000000000000000000081526004016103359061189f565b60405180910390fd5b60006001600085815260200190815260200160002090503373ffffffffffffffffffffffffffffffffffffffff168160030160009054906101000a900473ffffffffffffffffffffffffffffffffffffffff1673ffffffffffffffffffffffffffffffffffffffff16146103e7576040517f08c379a00000000000000000000000000000000000000000000000000000000081526004016103de90611931565b60405180910390fd5b8060030160149054906101000a900460ff16610438576040517f08c379a000000000000000000000000000000000000000000000000000000000815260040161042f906119c3565b60405180910390fd5b6000831161047b576040517f08c379a000000000000000000000000000000000000000000000000000000000815260040161047290611a2f565b60405180910390fd5b806002015483036104c1576040517f08c379a00000000000000000000000000000000000000000000000000000000081526004016104b890611ac1565b60405180910390fd5b600a81600201546104d29190611b10565b831115610514576040517f08c379a000000000000000000000000000000000000000000000000000000000815260040161050b90611b9e565b60405180910390fd5b8281600201819055503373ffffffffffffffffffffffffffffffffffffffff16847f081f3d4c7c3c211baadc73fd246e3a0f95fb77d3b6a06da07223a7e2a83e9ff3856040516105649190611838565b60405180910390a350505050565b600073ffffffffffffffffffffffffffffffffffffffff168273ffffffffffffffffffffffffffffffffffffffff16036105e1576040517f08c379a00000000000000000000000000000000000000000000000000000000081526004016105d890611c0a565b60405180910390fd5b600181101580156105f3575060058111155b610632576040517f08c379a000000000000000000000000000000000000000000000000000000000815260040161062990611c76565b60405180910390fd5b3373ffffffffffffffffffffffffffffffffffffffff168273ffffffffffffffffffffffffffffffffffffffff16036106a0576040517f08c379a000000000000000000000000000000000000000000000000000000000815260040161069790611d08565b60405180910390fd5b600080806000549050600091505b80821080156106bd5750606482105b156107ae578473ffffffffffffffffffffffffffffffffffffffff166001600084815260200190815260200160002060030160009054906101000a900473ffffffffffffffffffffffffffffffffffffffff1673ffffffffffffffffffffffffffffffffffffffff1614801561078d57506003600083815260200190815260200160002060003373ffffffffffffffffffffffffffffffffffffffff1673ffffffffffffffffffffffffffffffffffffffff16815260200190815260200160002060009054906101000a900460ff165b1561079b57600192506107ae565b81806107a690611d28565b9250506106ae565b826107ee576040517f08c379a00000000000000000000000000000000000000000000000000000000081526004016107e590611e08565b60405180910390fd5b6000600260008773ffffffffffffffffffffffffffffffffffffffff1673ffffffffffffffffffffffffffffffffffffffff168152602001908152602001600020905080600001548582600001546108469190611e28565b1015610887576040517f08c379a000000000000000000000000000000000000000000000000000000000815260040161087e90611ea8565b60405180910390fd5b7fffffffffffffffffffffffffffffffffffffffffffffffffffffffffffffffff8160010154106108ed576040517f08c379a00000000000000000000000000000000000000000000000000000000081526004016108e490611f14565b60405180910390fd5b848160000160008282546109019190611e28565b9250508190555080600101600081548092919061091d90611d28565b91905055503373ffffffffffffffffffffffffffffffffffffffff168673ffffffffffffffffffffffffffffffffffffffff167fd1e1a75de6d871246d9a51ee6f672019e38ac805a7adf094efce5b204ad2e84c8760405161097f9190611838565b60405180910390a3505050505050565b6000606060008060008560005481106109dd576040517f08c379a00000000000000000000000000000000000000000000000000000000081526004016109d49061189f565b60405180910390fd5b600060016000898152602001908152602001600020905080600001548160010182600201548360030160009054906101000a900473ffffffffffffffffffffffffffffffffffffffff168460030160149054906101000a900460ff16838054610a4590611f63565b80601f0160208091040260200160405190810160405280929190818152602001828054610a7190611f63565b8015610abe5780601f10610a9357610100808354040283529160200191610abe565b820191906000526020600020905b815481529060010190602001808311610aa157829003601f168201915b5050505050935096509650965096509650505091939590929450565b600460009054906101000a900460ff1615610b2a576040517f08c379a0000000000000000000000000000000000000000000000000000000008152600401610b2190611fe0565b60405180910390fd5b6001600460006101000a81548160ff021916908315150217905550806000548110610b8a576040517f08c379a0000000000000000000000000000000000000000000000000000000008152600401610b819061189f565b60405180910390fd5b60006001600084815260200190815260200160002090508060030160149054906101000a900460ff16610bf2576040517f08c379a0000000000000000000000000000000000000000000000000000000008152600401610be99061204c565b60405180910390fd5b8060020154341015610c39576040517f08c379a0000000000000000000000000000000000000000000000000000000008152600401610c30906120b8565b60405180910390fd5b3373ffffffffffffffffffffffffffffffffffffffff168160030160009054906101000a900473ffffffffffffffffffffffffffffffffffffffff1673ffffffffffffffffffffffffffffffffffffffff1603610ccb576040517f08c379a0000000000000000000000000000000000000000000000000000000008152600401610cc29061214a565b60405180910390fd5b60008160030160146101000a81548160ff02191690831515021790555060016003600085815260200190815260200160002060003373ffffffffffffffffffffffffffffffffffffffff1673ffffffffffffffffffffffffffffffffffffffff16815260200190815260200160002060006101000a81548160ff02191690831515021790555060008160020154905060008260030160009054906101000a900473ffffffffffffffffffffffffffffffffffffffff16905060008234610d91919061216a565b90506000811115610e5f5760003373ffffffffffffffffffffffffffffffffffffffff1682604051610dc2906121cf565b60006040518083038185875af1925050503d8060008114610dff576040519150601f19603f3d011682016040523d82523d6000602084013e610e04565b606091505b505090508015610e5d573373ffffffffffffffffffffffffffffffffffffffff167fe309aa15fd2f6bd8a58603632508694071e7d35e967bdbb827926e429b7ef34d83604051610e549190611838565b60405180910390a25b505b60008273ffffffffffffffffffffffffffffffffffffffff1684604051610e85906121cf565b60006040518083038185875af1925050503d8060008114610ec2576040519150601f19603f3d011682016040523d82523d6000602084013e610ec7565b606091505b5050905080610f0b576040517f08c379a0000000000000000000000000000000000000000000000000000000008152600401610f0290612256565b60405180910390fd5b3373ffffffffffffffffffffffffffffffffffffffff16877fb88526401a6ea2505abe1c144438847c7756ddd0fc9a9d22f4153719a308e85186604051610f529190611838565b60405180910390a35050505050506000600460006101000a81548160ff02191690831515021790555050565b6000808211610fc2576040517f08c379a0000000000000000000000000000000000000000000000000000000008152600401610fb990611a2f565b60405180910390fd5b6000835111611006576040517f08c379a0000000000000000000000000000000000000000000000000000000008152600401610ffd906122c2565b60405180910390fd5b60328351111561104b576040517f08c379a00000000000000000000000000000000000000000000000000000000081526004016110429061232e565b60405180910390fd5b6000805490506040518060a001604052808281526020018581526020018481526020013373ffffffffffffffffffffffffffffffffffffffff16815260200160011515815250600160008381526020019081526020016000206000820151816000015560208201518160010190816110c391906124fa565b506040820151816002015560608201518160030160006101000a81548173ffffffffffffffffffffffffffffffffffffffff021916908373ffffffffffffffffffffffffffffffffffffffff16021790555060808201518160030160146101000a81548160ff02191690831515021790555090505060008081548092919060010191905055503373ffffffffffffffffffffffffffffffffffffffff16817fd0eb8a62ee9cb3b17d49ed95bde5bf42b508a321c44a2af9b674f2b086db7b3986866040516111929291906125cc565b60405180910390a38091505092915050565b60008054905090565b60008073ffffffffffffffffffffffffffffffffffffffff168273ffffffffffffffffffffffffffffffffffffffff160361121d576040517f08c379a000000000000000000000000000000000000000000000000000000000815260040161121490611c0a565b60405180910390fd5b6000600260008473ffffffffffffffffffffffffffffffffffffffff1673ffffffffffffffffffffffffffffffffffffffff1681526020019081526020016000209050600081600101540361127657600091505061128e565b8060010154816000015461128a919061262b565b9150505b919050565b60016020528060005260406000206000915090508060000154908060010180546112bc90611f63565b80601f01602080910402602001604051908101604052809291908181526020018280546112e890611f63565b80156113355780601f1061130a57610100808354040283529160200191611335565b820191906000526020600020905b81548152906001019060200180831161131857829003601f168201915b5050505050908060020154908060030160009054906101000a900473ffffffffffffffffffffffffffffffffffffffff16908060030160149054906101000a900460ff16905085565b6000604051905090565b600080fd5b600080fd5b600073ffffffffffffffffffffffffffffffffffffffff82169050919050565b60006113bd82611392565b9050919050565b6113cd816113b2565b81146113d857600080fd5b50565b6000813590506113ea816113c4565b92915050565b60006020828403121561140657611405611388565b5b6000611414848285016113db565b91505092915050565b6000819050919050565b6114308161141d565b82525050565b600060408201905061144b6000830185611427565b6114586020830184611427565b9392505050565b6114688161141d565b811461147357600080fd5b50565b6000813590506114858161145f565b92915050565b600080604083850312156114a2576114a1611388565b5b60006114b085828601611476565b92505060206114c1858286016113db565b9150509250929050565b60008115159050919050565b6114e0816114cb565b82525050565b60006020820190506114fb60008301846114d7565b92915050565b6000806040838503121561151857611517611388565b5b600061152685828601611476565b925050602061153785828601611476565b9150509250929050565b6000806040838503121561155857611557611388565b5b6000611566858286016113db565b925050602061157785828601611476565b9150509250929050565b60006020828403121561159757611596611388565b5b60006115a584828501611476565b91505092915050565b600081519050919050565b600082825260208201905092915050565b60005b838110156115e85780820151818401526020810190506115cd565b60008484015250505050565b6000601f19601f8301169050919050565b6000611610826115ae565b61161a81856115b9565b935061162a8185602086016115ca565b611633816115f4565b840191505092915050565b611647816113b2565b82525050565b600060a0820190506116626000830188611427565b81810360208301526116748187611605565b90506116836040830186611427565b611690606083018561163e565b61169d60808301846114d7565b9695505050505050565b600080fd5b600080fd5b7f4e487b7100000000000000000000000000000000000000000000000000000000600052604160045260246000fd5b6116e9826115f4565b810181811067ffffffffffffffff82111715611708576117076116b1565b5b80604052505050565b600061171b61137e565b905061172782826116e0565b919050565b600067ffffffffffffffff821115611747576117466116b1565b5b611750826115f4565b9050602081019050919050565b82818337600083830152505050565b600061177f61177a8461172c565b611711565b90508281526020810184848401111561179b5761179a6116ac565b5b6117a684828561175d565b509392505050565b600082601f8301126117c3576117c26116a7565b5b81356117d384826020860161176c565b91505092915050565b600080604083850312156117f3576117f2611388565b5b600083013567ffffffffffffffff8111156118115761181061138d565b5b61181d858286016117ae565b925050602061182e85828601611476565b9150509250929050565b600060208201905061184d6000830184611427565b92915050565b7f467275697420696e6578697374616e7400000000000000000000000000000000600082015250565b60006118896010836115b9565b915061189482611853565b602082019050919050565b600060208201905081810360008301526118b88161187c565b9050919050565b7f5365756c206c652076656e646575722070657574206d65747472652061206a6f60008201527f7572206c65206672756974000000000000000000000000000000000000000000602082015250565b600061191b602b836115b9565b9150611926826118bf565b604082019050919050565b6000602082019050818103600083015261194a8161190e565b9050919050565b7f4c65206672756974206e276573742070617320646973706f6e69626c6520706f60008201527f7572206c61206d6973652061206a6f7572000000000000000000000000000000602082015250565b60006119ad6031836115b9565b91506119b882611951565b604082019050919050565b600060208201905081810360008301526119dc816119a0565b9050919050565b7f4c65207072697820646f69742065747265207375706572696575722061203000600082015250565b6000611a19601f836115b9565b9150611a24826119e3565b602082019050919050565b60006020820190508181036000830152611a4881611a0c565b9050919050565b7f4c65206e6f7576656175207072697820646f697420657472652064696666657260008201527f656e74206465206c27616e6369656e0000000000000000000000000000000000602082015250565b6000611aab602f836115b9565b9150611ab682611a4f565b604082019050919050565b60006020820190508181036000830152611ada81611a9e565b9050919050565b7f4e487b7100000000000000000000000000000000000000000000000000000000600052601160045260246000fd5b6000611b1b8261141d565b9150611b268361141d565b9250828202611b348161141d565b91508282048414831517611b4b57611b4a611ae1565b5b5092915050565b7f4175676d656e746174696f6e2064652070726978206578636573736976650000600082015250565b6000611b88601e836115b9565b9150611b9382611b52565b602082019050919050565b60006020820190508181036000830152611bb781611b7b565b9050919050565b7f416472657373652064752076656e6465757220696e76616c6964650000000000600082015250565b6000611bf4601b836115b9565b9150611bff82611bbe565b602082019050919050565b60006020820190508181036000830152611c2381611be7565b9050919050565b7f4c61206e6f746520646f6974206574726520656e747265203120657420350000600082015250565b6000611c60601e836115b9565b9150611c6b82611c2a565b602082019050919050565b60006020820190508181036000830152611c8f81611c53565b9050919050565b7f566f7573206e6520706f7576657a2070617320766f7573206e6f74657220766f60008201527f75732d6d656d6500000000000000000000000000000000000000000000000000602082015250565b6000611cf26027836115b9565b9150611cfd82611c96565b604082019050919050565b60006020820190508181036000830152611d2181611ce5565b9050919050565b6000611d338261141d565b91507fffffffffffffffffffffffffffffffffffffffffffffffffffffffffffffffff8203611d6557611d64611ae1565b5b600182019050919050565b7f566f7573206e6520706f7576657a206e6f74657220717565206c65732076656e60008201527f646575727320617570726573206465737175656c7320766f7573206176657a2060208201527f6163686574650000000000000000000000000000000000000000000000000000604082015250565b6000611df26046836115b9565b9150611dfd82611d70565b606082019050919050565b60006020820190508181036000830152611e2181611de5565b9050919050565b6000611e338261141d565b9150611e3e8361141d565b9250828201905080821115611e5657611e55611ae1565b5b92915050565b7f446570617373656d656e742061726974686d6574697175650000000000000000600082015250565b6000611e926018836115b9565b9150611e9d82611e5c565b602082019050919050565b60006020820190508181036000830152611ec181611e85565b9050919050565b7f4e6f6d627265206d6178696d756d206465206e6f7465732061747465696e7400600082015250565b6000611efe601f836115b9565b9150611f0982611ec8565b602082019050919050565b60006020820190508181036000830152611f2d81611ef1565b9050919050565b7f4e487b7100000000000000000000000000000000000000000000000000000000600052602260045260246000fd5b60006002820490506001821680611f7b57607f821691505b602082108103611f8e57611f8d611f34565b5b50919050565b7f5265656e7472616e6365206e6f6e206175746f72697365650000000000000000600082015250565b6000611fca6018836115b9565b9150611fd582611f94565b602082019050919050565b60006020820190508181036000830152611ff981611fbd565b9050919050565b7f4672756974206e6f6e20646973706f6e69626c652061206c2761636861740000600082015250565b6000612036601e836115b9565b915061204182612000565b602082019050919050565b6000602082019050818103600083015261206581612029565b9050919050565b7f466f6e647320696e737566666973616e747320656e766f796573000000000000600082015250565b60006120a2601a836115b9565b91506120ad8261206c565b602082019050919050565b600060208201905081810360008301526120d181612095565b9050919050565b7f4c652076656e64657572206e652070657574207061732061636865746572207360008201527f6f6e2070726f7072652066727569740000000000000000000000000000000000602082015250565b6000612134602f836115b9565b915061213f826120d8565b604082019050919050565b6000602082019050818103600083015261216381612127565b9050919050565b60006121758261141d565b91506121808361141d565b925082820390508181111561219857612197611ae1565b5b92915050565b600081905092915050565b50565b60006121b960008361219e565b91506121c4826121a9565b600082019050919050565b60006121da826121ac565b9150819050919050565b7f4563686563206465206c27656e766f6920647520706169656d656e742061752060008201527f76656e6465757200000000000000000000000000000000000000000000000000602082015250565b60006122406027836115b9565b915061224b826121e4565b604082019050919050565b6000602082019050818103600083015261226f81612233565b9050919050565b7f4c65206e6f6d206e652070657574207061732065747265207669646500000000600082015250565b60006122ac601c836115b9565b91506122b782612276565b602082019050919050565b600060208201905081810360008301526122db8161229f565b9050919050565b7f4c65206e6f6d206573742074726f70206c6f6e67000000000000000000000000600082015250565b60006123186014836115b9565b9150612323826122e2565b602082019050919050565b600060208201905081810360008301526123478161230b565b9050919050565b60008190508160005260206000209050919050565b60006020601f8301049050919050565b600082821b905092915050565b6000600883026123b07fffffffffffffffffffffffffffffffffffffffffffffffffffffffffffffffff82612373565b6123ba8683612373565b95508019841693508086168417925050509392505050565b6000819050919050565b60006123f76123f26123ed8461141d565b6123d2565b61141d565b9050919050565b6000819050919050565b612411836123dc565b61242561241d826123fe565b848454612380565b825550505050565b600090565b61243a61242d565b612445818484612408565b505050565b5b818110156124695761245e600082612432565b60018101905061244b565b5050565b601f8211156124ae5761247f8161234e565b61248884612363565b81016020851015612497578190505b6124ab6124a385612363565b83018261244a565b50505b505050565b600082821c905092915050565b60006124d1600019846008026124b3565b1980831691505092915050565b60006124ea83836124c0565b9150826002028217905092915050565b612503826115ae565b67ffffffffffffffff81111561251c5761251b6116b1565b5b6125268254611f63565b61253182828561246d565b600060209050601f8311600181146125645760008415612552578287015190505b61255c85826124de565b8655506125c4565b601f1984166125728661234e565b60005b8281101561259a57848901518255600182019150602085019450602081019050612575565b868310156125b757848901516125b3601f8916826124c0565b8355505b6001600288020188555050505b505050505050565b600060408201905081810360008301526125e68185611605565b90506125f56020830184611427565b9392505050565b7f4e487b7100000000000000000000000000000000000000000000000000000000600052601260045260246000fd5b60006126368261141d565b91506126418361141d565b925082612651576126506125fc565b5b82820490509291505056fea26469706673582212203067c0de4192051ec77665b41151a3d5afdfc8ac28eb8c553f48bee9601044f964736f6c634300081c0033",
  "linkReferences": {},
  "deployedLinkReferences": {}
}